:020000040000fa
:080000000002040000000000f2
:020000040000fa
:100008009a0200009a0200009a0200009a02000078
:100018009a0200009a0200009a0200009a02000068
:100028009a0200009a0200009a0200009a02000058
:100038009a0200009a0200009a0200007024000050
:100048009a0200009a0200009a0200009a02000038
:100058009a0200009a0200009a0200009a02000028
:100068009a0200009a0200009a0200009a02000018
:100078009a0200009a0200009a0200009a02000008
:100088009a0200009a0200009a0200009a020000f8
:100098009a0200009a0200009a0200009a020000e8
:1000a8009a0200009a0200009a0200009a020000d8
:1000b8009a0200009a0200009a0200009a020000c8
:1000c8009a0200009a0200009a0200009a020000b8
:1000d8009a0200009a0200009a0200009a020000a8
:1000e8009a0200009a0200009a0200009a02000098
:1000f8009a0200009a0200009a0200009a02000088
:100108009a0200009a0200009a0200009a02000077
:100118009a0200009a0200009a0200009a02000067
:100128009a0200009a0200009a0200009a02000057
:100138009a0200009a0200009a0200009a02000047
:100148009a0200009a0200009a0200009a02000037
:100158009a0200009a0200009a0200009a02000027
:100168009a0200009a0200009a0200009a02000017
:100178009a0200009a0200009a0200009a02000007
:100188009a0200009a0200009a0200009a020000f7
:100198009a0200009a0200009a0200009a020000e7
:1001a8009a0200009a0200009a0200009a020000d7
:1001b8009a0200009a0200009a0200009a020000c7
:1001c8009a0200009a0200009a0200009a020000b7
:1001d8009a0200009a0200009a0200009a020000a7
:1001e8009a0200009a0200009a0200009a02000097
:0801f8009a0200009a020000c7
:020000040000fa
:100208009a0200009a0200009a0200009a02000076
:100218009a0200009a0200009a0200009a02000066
:100228009a0200009a0200009a0200009a02000056
:100238009a0200009a0200009a020000702400004e
:100248009a0200009a0200009a0200009a02000036
:100258009a0200009a0200009a0200009a02000026
:100268009a0200009a0200009a0200009a02000016
:100278009a0200009a0200009a0200009a02000006
:100288009a0200009a0200009a0200009a020000f6
:100298009a0200009a0200009a0200009a020000e6
:1002a8009a0200009a0200009a0200009a020000d6
:1002b8009a0200009a0200009a0200009a020000c6
:1002c8009a0200009a0200009a0200009a020000b6
:1002d8009a0200009a0200009a0200009a020000a6
:1002e8009a0200009a0200009a0200009a02000096
:1002f8009a0200009a0200009a0200009a02000086
:100308009a0200009a0200009a0200009a02000075
:100318009a0200009a0200009a0200009a02000065
:100328009a0200009a0200009a0200009a02000055
:100338009a0200009a0200009a0200009a02000045
:100348009a0200009a0200009a0200009a02000035
:100358009a0200009a0200009a0200009a02000025
:100368009a0200009a0200009a0200009a02000015
:100378009a0200009a0200009a0200009a02000005
:100388009a0200009a0200009a0200009a020000f5
:100398009a0200009a0200009a0200009a020000e5
:1003a8009a0200009a0200009a0200009a020000d5
:1003b8009a0200009a0200009a0200009a020000c5
:1003c8009a0200009a0200009a0200009a020000b5
:1003d8009a0200009a0200009a0200009a020000a5
:1003e8009a0200009a0200009a0200009a02000095
:0803f8009a0200009a020000c5
:020000040000fa
:100400000fb820000eff20000e0188000000000041
:10041000000020000000e000020032000001200087
:10042000200288000c00070000b32100010020001a
:1004300011000700000020000000e0000200320070
:100440000000020000000000302402000000000054
:100450000040da000000fe004440a900000820002f
:100460000000e0000300320000002000a00188002e
:100470004440a80000000600910188008000780038
:100480000000eb0015003700e280400032a0b4000d
:100490009101ba00e280400032a0b4009102ba009b
:1004a000e280400032a0b4000002eb00472bde00e7
:1004b000f507b200602ce10004003a000059eb009f
:1004c0008301e900fdff3e00040037006128e100e0
:1004d000010032000082eb00040007001101ba00a5
:1004e0000200e000e8ff3a00000006003159ba00bf
:1004f0008301e9000c0032002159ba008301e900b0
:10050000080032000400e00003003a00e2804000ee
:1005100032a0b400f5ff370011d9ba008301e90019
:10052000faff3a008100e800e180400032a0b40008
:10053000000006000040da000000fe000a00fa0099
:10054000e20f500022003e00f45b8000e10f5200f9
:1005500006003200872320004623200024232000a9
:1005600005232000e08f530004003a00872220007a
:10057000462220002422200005222000000028001e
:100580001500600003003a00800b78000700280087
:10059000958a7300054020009482620001003a00b1
:1005a00014a0a000820278000600370094037800af
:1005b0000710b200fdff3200b103fb00070b78000b
:1005c0008502e900e08f5200f8ff3a00080037008a
:1005d00034002000c0bf9f00e2bf9f00b4bf9f0057
:1005e000d1bf9f006a805700610107006fb9970073
:1005f000020078000080fa0000000600839f680077
:100600000100e00002003d0060001000e0801800e2
:100610000300e00002003d0060011100e0811900cc
:10062000370007004f00e00002003b0060001000b0
:10063000e0801800000006000001be001b0007005b
:100640000470a70003f0a10003f8a30013003a0010
:100650006509b10010003200090035006928e10089
:1006600002003500010028000000050000004000e5
:10067000818048008502e900fcff3a000000060086
:10068000f88f4200050035008100d1000080d300c2
:100690008502e800fcff3a00000006008000eb0045
:1006a000000005006011b80025003700c70ade0011
:1006b000f107b200f50fb20008003200e1cf4200ae
:1006c000020032000170a00024000500810f7000bc
:1006d000010032000408050044000500810f70008d
:1006e00002003a00140005008502e9000000400005
:1006f00081c04800fcff3b000170a0002400050001
:100700006022b800060220000000d0008180d200e4
:100710000482d2008582d2000000a00002025200b2
:1007200083825a00030031000202420083824a00a1
:100730000000a1000603e900f3ff3a0000000600f4
:10074000889fbe008a9fbe00008270000402710074
:1007500004827100260032000004be000200be00c8
:100760006011b8006b092000950220000182cf00c3
:100770000a0039000541b1000082cf0007003900ae
:100780000541b1000982cf00040039000541b100e4
:100790000882cf00010039000541b1000542520036
:1007a000120032000a003b00828171006101640086
:1007b0008100d1000080d3008984d3000884d30055
:1007c0008b05e8000442e800f7ff3a000700370015
:1007d0000804440089844c000000480081804800df
:1007e0008b05e9000442e900f9ff3a000300070025
:1007f0004f05be004f04be0000000600810020002f
:10080000618055000b003d000b00200061fe2f00b1
:100810000100e1001d00340082817100610164006b
:100820008904d1000884d3000000e800faff3a00f0
:10083000710020006100640003007000020060008d
:100840000900320061044400e0844c000988a500de
:10085000050032008b05e8006808e10002003a005c
:100860008904d1000884d300f20f20000258e1006f
:1008700005003d00c75ddd00f907b2008980750005
:1008800008007800000006000bf827008b007800b5
:10089000000005000c00fa00889fbe00f4ff27004e
:1008a00000047800d4bf9f008004eb0088bf9f0045
:1008b00099bf9f00a8bf9f00240c2000788157009b
:1008c000b4bf9f00cfb09700708057000f020700a1
:1008d0000fba9700094a78000fba97000800520033
:1008e0004f04be000080fa00000006000000fa007d
:1008f000e88157004fb99700020007000080fa0016
:1009000000000600000278000c00fa008202780065
:100910000000eb00e18f50000d0036008100e9007f
:10092000b0bf9f00f1bf9f00a4bf9f00c4bf9f0046
:1009300003017800240c200085007800d4bf9f00bc
:100940006c805700f10107002fba9700004aeb00b6
:100950000080fa0000000600889fbe0001047800b5
:100960008084eb0038029000e20262003b0032001b
:1009700004037800980290000620b20002003a00ba
:10098000e08f520035003a000490a0008004780007
:1009900034049800f90fb200e08f520002003a00d0
:1009a000a8029000050c7800ea8f540005003a0078
:1009b0000408b20003003a0088007800d00020004c
:1009c000e5ff070018029000d8029000850f520042
:1009d0000b0032000402e80015c0b30014049800b4
:1009e00018027800094a7800040ce80084b7200057
:1009f000054a7800ea8f540018003a0005003700d5
:100a0000094078008800780017000700800478000b
:100a100012003700380290000410b2000f003200bc
:100a200018019000a800900048009000c3fe070045
:100a300018029000840f5000040032003802900029
:100a40000403b300340498008084eb000002eb0040
:100a50001404980028029000040c78000900780023
:100a60004f04be00000006000200fa00889fbe008e
:100a700001047800a0ff9f003802900084027800f3
:100a80000504b200020032000000fb003500370010
:100a9000e202620005003a000403b3001504980066
:100aa000340498000080eb002e003700d80490003a
:100ab000e08f540006003a0012002000e680570044
:100ac000480090009dfe070019049800230037009d
:100ad000a8029000e08f520008003a00c5b720003d
:100ae0000430a00025049800050c78003404980018
:100af0002500200055049800150498001801900066
:100b0000a8009000480090008cfe0700280290008a
:100b10008082eb0015049800affa9700054a780030
:100b2000040ce8002ffa9700ea4f52000b003a003d
:100b3000380290000410b200080032001801900042
:100b4000a8009000480090007cfe07000002eb0027
:100b5000a802900014049800050c78002ffa970062
:100b60000400fb004f04be000080fa0000000600f5
:100b700000c0da0000000600020ab900001bb9003c
:100b80000200b8008100420081004300000006001e
:100b9000889fbe008a9fbe003004be002005be00b4
:100ba0000404440085844c0006054d0087854d00f3
:100bb0000898be000a90be000440e10005c8e100ac
:100bc00006d0e10007d8e1000200310068004000d3
:100bd0001008e8004f05be004f04be0000000600ec
:100be0001000fa00889fbe008a9fbe0011002000fe
:100bf0000605be000404be003002be002003be0095
:100c0000c4b79f00d5b79f00e6b79f00f7b79f0016
:100c10000802520089825a000a035b008b835b0042
:100c200084bf9f0095bf9f00a6bf9f00b7bf9f00d6
:100c30000498be000698be004fb29700dfb297003e
:100c40006fb39700ffb397000820e10009a8e10007
:100c50000ab0e1000bb8e100010039008000eb00b0
:100c60004f05be00108810004f04be000080fa003f
:100c7000000006001400fa00889fbe008a9fbe0094
:100c80008c9fbe000006eb003e000700ccb79f0023
:100c9000bcb79f00acb79f009cb79f008cb79f006c
:100ca0000605be000404be000d0420004fb39700eb
:100cb000bfb29700860343002fb29700e00f5300a6
:100cc00004003d003d0007000f004000b0ff07009a
:100cd00003003700390007000f004000c0ff070085
:100ce000cfb2970095bf9f00e08f520009003500fa
:100cf0002b00070014002000050020006033b8001e
:100d00000000720081807200020173008381730011
:100d10001c0007000c06e8008d0f5600e3ff3a00a8
:100d20001fba9700e00f520005003d000802be0008
:100d30000a03be0000fe2f000f00400094ff0700d2
:100d40004faa9700e00f520008003a000fb4970036
:100d50009fb497002fb59700bfb59700d8b79f00f5
:100d6000e9b79f00fab79f008bbf9f000c000700f8
:100d70004f06be004f05be004f04be000080fa00c3
:100d800000000600010007000000060090b79f0069
:100d9000a1b79f00b2b79f00c3b79f000000060035
:100da00001000700000006001fb09700afb09700d9
:100db0003fb19700cfb19700000006004f2bde0037
:100dc000f9ff070086837300858242004f23de000f
:100dd000a7b79f00868272000402420095b79f0069
:100de000ffaa97004f2bde008582420006027200a8
:100df00084b79f006faa97004f23de0004024200d1
:100e000086827200f5af9f004f18de00000272006c
:100e1000e5ff0700e4af9f0000004000818048002c
:100e200002014900838149000802be000a03be0096
:100e3000d6ff070000fe2f0000000600881f780084
:100e400018002000881f78008aff07008f87e900bc
:100e50004f04780000000600801feb0085ff0700ac
:100e60008f87e90000000600889fbe008a9fbe00b1
:100e7000e00f5000e08f5800e00f5900e08f59005c
:100e80000c003d006044b8006055b80000005400fc
:100e900081805c0002015d0083815d0018002000fc
:100ea0001500070008003d00180007000004eb00d3
:100eb000050037000004eb000f00070002003d00b2
:100ec0001200070018002000dcff0700e00f5400ac
:100ed000060032006022b8006033b8000000520003
:100ee00081805a0002015b0083815b004f05be00d8
:100ef0004f04be0000000600e00f5200e08f5a00d1
:100f0000e00f5b00e08f5b00000006006044b8006b
:100f10006055b8000402540085825c0006035d0041
:100f200087835d0000000600889fbe008a9fbe0088
:100f30008c1f7800e00f5000e08f5800e00f590040
:100f4000e08f59000d003d006044b8006055b800c6
:100f50001c0020000000540081805c0002015d0044
:100f600083815d000820e10009a8e1000ab0e100ea
:100f70000bb8e1000d003d00080037000006eb0053
:100f8000e00f5200e08f5a00e00f5b00e08f5b0043
:100f900006003d006044b8006055b80004025400eb
:100fa00085825c0006035d0087835d00aaff070061
:100fb000e00f5600060032006022b8006033b8002f
:100fc0000000520081805a0002015b0083815b00b7
:100fd0004f0678004f05be004f04be00000006001b
:100fe000889fbe008a9fbe008c1f78000006eb0021
:100ff000e00f5000e08f5800e00f5900e08f5900db
:1010000007003d006044b8006055b8001c00200097
:101010000000540081805c0002015d0083815d005e
:10102000e00f5200e08f5a00e00f5b00e08f5b00a2
:1010300007003d006044b8006055b8000c00a200f5
:101040000402540085825c0006035d0087835d0016
:101050000c000700e00f5600060032006022b800c6
:101060006033b8000000520081805a0002015b002a
:1010700083815b004f0678004f05be004f04be0021
:1010800000000600889fbe008a9fbe008c9fbe00a5
:101090000404b8000506b8008904460060854e00c7
:1010a0000606b8000a054600e0854e000706b800af
:1010b0008b054600040eb800890446000a854e00e0
:1010c000e0854d00050eb8000a0546008b854e00f0
:1010d000060eb8008b0546000416b8000a05460047
:1010e0008b854e000516b8008b054600041eb8001f
:1010f0008b0546000800be000a01be004f06be0078
:101100004f05be004f04be0000000600ef03b00014
:10111000889fbe008a9fbe008c9fbe00800678001c
:101120008e1f78000007eb00d1af9f00a2b79f0091
:1011300066033700dfa8970054c2b3008100e800bf
:10114000d1af9f00844f500006003a0001027800a2
:101150000006eb0001c3b30000c2b300b7c2b30086
:101160000e0037003d0290000404b200040032007b
:101170001d027800004a7800840ee8000500370060
:101180000000fb008d007800f3fd0700e10f400038
:101190004e0332000e07e8004c033700840278004b
:1011a000d2c2b30034437800824f530009003200aa
:1011b00005003c00804f530008003200874f530069
:1011c0000c003a0007003700814f530009003a0035
:1011d000060037000c30a000f0ff37000c00a00024
:1011e000eeff37000c10a000ecff37000c20a00031
:1011f000eaff370062026600010032000c00a10025
:1012000068026600010032000c20a1000602fb000b
:101210000403b100e90f52000c003e000503780002
:101220000002eb00b603fb006a22b9000703b1001d
:1012300086027800048243009603fb000703b10096
:10124000e98f5300f7ff3600080037000002eb007b
:10125000a7c2b300874f530004003a00afb1970014
:101260008502e80043027800a3b79f000003eb006b
:1012700096b79f00e6c2b300954f13000c003a00ea
:101280000ce0a00064435300d54f1300030032006c
:10129000050378000000eb0009003700afb39700aa
:1012a0008502e80047047800a7b79f0098b79f0021
:1012b00005037800090037006a00b9000080430088
:1012c00086027800b603fb000703b100e98f5300e4
:1012d000f9ff360090b79f00f5ff3700b64278005f
:1012e000cac6b300d6af9f008acf52002500320095
:1012f0000f003c0036c6b30086cf52009e0032007d
:1013000004003c00e0cf5200f50232006b43530072
:101310000f00370046c6b30086cf520017003200d8
:101320006543430086cf5200b2003a0013003700f5
:1013300036c7b30086cf52001f00320007003c00c2
:101340006443530086cf5200140032000643e80085
:1013500086cf5200a7003a001300370056c7b300eb
:1013600086cf5200aa0032006343430086cf52006a
:10137000a0003a00e5779f000d003700e5779f0059
:10138000a5003700f00366000501200001003200cf
:10139000050028000c867200d0ff3700e5779f001b
:1013a0000c60a0009c003700e5779f000c50a00067
:1013b0000c70a00098003700afb59700e5779f004c
:1013c000cb027800abb79f00b5b79f00e08f52000b
:1013d00002003a00a1b42000b1b79f003fb39700cc
:1013e0008002eb00010037008502e800e6c37a00c6
:1013f000e0cf5300fcff3a00c5b79f001fb1970034
:10140000e00f510005003200cfb19700830f51006b
:101410000200310082027800c5b79f00cfb297006a
:101420000004eb00850f5200010036000504520055
:101430006806660009c2b3000f00320029003700b9
:101440003d0290000404b200040032001d02780046
:10145000094a7800840ee800050037008d00780006
:10146000000220003cfd0700e10f400001003200b7
:101470000e07e8000804e900e00f5400f0ff3a000e
:101480000084eb0017003700bd0290000504b20095
:1014900009003200880278009d0378003543780007
:1014a000864b780005047800870ee800e04f530073
:1014b0000a003a0011003700880278008d00780099
:1014c0003500fb0084bf9f000504780022fd070063
:1014d0000fba9700e10f4000080032000e07e80045
:1014e000060037000c027800080678003fb4970029
:1014f000cfb497005fb59700efb5970089027800e9
:101500008504e900e08f5200dfff3a00b8b79f0082
:10151000c9b79f00dab79f00ebb79f000c047800b3
:1015200009c2b30004067800e00f56000f003a002d
:10153000660237003d0290000404b200040032004d
:101540001d027800094a7800840ee8000500370083
:101550008d00780000022000fffc0700e10f400032
:10156000010032000e07e8000804e900e00f540013
:10157000f0ff3a0055023700afb0970070036600e5
:1015800041047800a1b79f00cfc4de0009057800b0
:101590008a0578000800be000a01be004800de008f
:1015a000c80add0000807200e0779f00e00f530062
:1015b00009003200e04f500007003200e14f4000c8
:1015c0000500320026002000f0779f00887f9f00f2
:1015d000c6b79f000300370017002000c7b79f0061
:1015e000f8779f0078fb2f0008844700b8b79f006a
:1015f00082ff370069fb2f001a0020008984470012
:10160000e5779f00b9b79f00cab79f007bff3700ff
:10161000e5779f000c0cb3008c027800050cb2003b
:101620003b003a00e00f560005003d00afb29700c6
:101630004501be004500be00a5b79f000f00370062
:10164000f0026600120032002fb497004803be007b
:10165000f69f9f0087a79f00a8b79f009802900061
:10166000cfaade0095a79f00a5a79f007f989700af
:101670008fa097001fa19700afa19700b0b79f0060
:10168000c1b79f00d2b79f00e3b79f000b003700a0
:10169000afb09700c102780005047800cfc4de0027
:1016a000090578008a057800a1b79f00b8b79f00a8
:1016b000c9b79f00dab79f00ebb79f003fb0970014
:1016c000cfb097005fb19700efb19700e00f5000e7
:1016d000e08f5800e00f5900e08f590032003d00c4
:1016e0006000b8006011b8003fb49700cfb4970015
:1016f0005fb59700efb597003c00b30008045000b9
:10170000898458000a0559008b855900220037004a
:10171000e00f560005003d00afb297004501be0046
:101720004500be00a5b79f000f003700f00266001d
:10173000120032002fb497008004eb004803be0073
:101740000005eb0096af9f00a7af9f00b9af9f00c9
:10175000caaf9f001fa89700afa897003fa99700a6
:10176000cfa99700a8b79f00b0b79f00c1b79f004f
:10177000d2b79f00e3b79f000b003700afb09700d0
:10178000c1027800a1b79f0005047800090020007d
:101790000a0020000b002000b8b79f00c9b79f00c7
:1017a000dab79f00ebb79f009fb49700e08f54001b
:1017b0000d003a001a0020003fb09700cfb097000c
:1017c0005fb19700efb197009ab79f00e00f50000c
:1017d000e08f5800e00f5900e08f590002003200fe
:1017e0008000eb0091b79f000c01780005042000f9
:1017f000020cb20082b79f00850f51003400320006
:1018000003003c00e00f51000800320048003700a0
:10181000050820008fb19700858f51001400320019
:10182000050c2000858f510041003a0006a92000d8
:1018300015c0b3003600be003601be003fb49700ad
:10184000cfb497005fb59700efb597000040e10077
:1018500001c8e10002d0e10003d8e1003300390003
:101860008542e800f4cf5200f2ff3a002f00370023
:1018700015c0b30000012000010020006011b80075
:101880003fb49700cfb497005fb59700efb59700ce
:101890000040e10001c8e10002d0e10003d8e1000e
:1018a00022003900490020000000d0008180d200d1
:1018b0000281d2008381d2008904e900faff3a0054
:1018c0008542e800f0cf5200edff3a0017003700e4
:1018d00015c0b30080002000010020006011b80096
:1018e0003fb49700cfb497005fb59700efb597006e
:1018f0000040e10001c8e10002d0e10003d8e100ae
:101900000a003900390020000000d0008180d20098
:101910000281d2008381d2008904e900faff3a00f3
:101920008542e800f5cf5200edff3a00e5779f00d1
:101930006f7597009fb597008a02fb008b8f52004e
:1019400002003d00eb779f00040037001fb09700b6
:10195000850f500001003d0095b79f00e00f520039
:1019600003003200e3026600010032000402e900d5
:101970000500240085026600060032009fb0970033
:10198000810f5200020034000102520001003700b2
:101990000002eb006f7197008001eb008202fb00f8
:1019a000f3af9f00850f5200020034008502520001
:1019b000f5af9f00640266003b003200e202660061
:1019c00061026600e08f520011003200bd029000fb
:1019d0000504b200080032009d027800b6c2b300d0
:1019e000e00f52000100320006c3e800864a78008a
:1019f000850ee80015003700b0022000e00f52000d
:101a0000010032000080e8008d0078000c003700f3
:101a1000e00f52000e0032003d0290000404b200bc
:101a2000050032001d02780005c2b300054a7800a7
:101a3000840ee800050037008d00780000022000c9
:101a4000c5fb0700e10f4000010032000e07e8006f
:101a50007faa9700e00f52004f00320008c3b30086
:101a6000840478003d0290000404b20004003200b7
:101a70001d027800084a7800840ee800050037004f
:101a80008d00780000032000b3fb0700e10f400049
:101a9000010032000e07e8008904e900f1ff3a0076
:101aa000f9af9f003c003700ffaa9700e08f52007b
:101ab000140032006802660012003a0008c2b30047
:101ac000850478003d0290000404b2000400320056
:101ad0001d027800084a7800840ee80005003700ef
:101ae0008d007800000220009bfb0700e10f400002
:101af000010032000e07e8008904e900f1ff3a0016
:101b0000f9af9f00e202660061026600e08f5200ba
:101b100011003200bd0290000504b200080032003e
:101b20009d027800b6c2b300e00f520001003200ff
:101b300006c3e800864a7800850ee80015003700e5
:101b4000b0022000e00f5200010032000080e800e7
:101b50008d0078000c003700e00f52000e003200bc
:101b60003d0290000404b200050032001d0278001e
:101b700005c2b300054a7800840ee800050037006e
:101b80008d0078000002200073fb0700e10f400089
:101b9000010032000e07e8001fb3970085a820005f
:101ba0000602e900f0046600c223dd000c0578009f
:101bb000c7a79f000a02b2006323b900e99f9f00f4
:101bc000060478004322dd00b8a79f00850242008a
:101bd000da9f9f00e5af9f00a30037009fb59700f5
:101be0000fb097008b05e900010420009bb79f0010
:101bf000810f50007300320003003c00e00f5000e2
:101c0000080032007e003700040820000fb1970062
:101c1000840f510056003200040c2000840f510044
:101c200077003a00e00f56001f003d00efa9970033
:101c30003304be002305be003fb09700cfb097002d
:101c40005fb19700efb197000802be000a03be0023
:101c50007afc07000802be000a03be00e0779f007e
:101c60000000fb00cf80de000101780082017800d7
:101c7000dbfc07003fb29700cfb297005fb397003d
:101c8000efb397000002520081825a0002035b000a
:101c900083835b00b4b79f00c5b79f00d6b79f0092
:101ca000e7b79f002e003700ef9a9700e08f5200b1
:101cb000220032006fab97003fb29700cfb297007f
:101cc0003604be002605be000400be000801be00aa
:101cd00084bf9f00f5b79f000005eb0088fa07005e
:101ce0000801be00e0779f000000fb00cf80de000f
:101cf000a1fb07000fba9700ffb297008aaf9f00c1
:101d00000004520081845a00d8a79f00e9a79f00d1
:101d10008004eb00f9a79f005fa09700efa0970059
:101d20007fa197008fa99700b0b79f00c1b79f0010
:101d3000d2b79f00e3b79f0009003700efa89700d4
:101d40003fb1970011027800110009000481d8000a
:101d5000a4002000110009000480d800e1779f0052
:101d6000ef7197000343b000e3779f002400370032
:101d700094b32000df9a9700e08f520001003200f8
:101d800084b220003fb09700cfb097005fb19700ba
:101d9000efb197004fa397000603e9000500330059
:101da0008301d1000281d3008180d3000080d30061
:101db000f9ff37006f00600064407800e0779f0013
:101dc0000f0037003fb29700cfb297005fb3970084
:101dd000efb397003fa497000804e9000500330023
:101de0008703d1000683d3008582d3000482d30009
:101df000f9ff3700674262000443b000e4779f00b8
:101e00003d0290000404b200070032009d027800f9
:101e10006f729700844a7800850ee800e04f520008
:101e200007003a0007003700ef7497008d00780034
:101e30000900fb00c8fa0700e10f40000100320072
:101e40000e07e8004fa59700bfa597006fa8970061
:101e500064055500e385550068005000caa79f003f
:101e6000bba79f00e0af9f009fb09700e08f50009e
:101e70005aff3a0068066600140032007fa99700f6
:101e8000e00f51001100340008c2b3008204780052
:101e90003d0290000404b200040032001d027800ec
:101ea000084a7800840ee800050037008d007800ad
:101eb00000022000a8fa0700e10f400001003200f4
:101ec0000e07e8008904e900f1ff3a00dfa9970056
:101ed00013407800e0779f00e04f500095fc3a00f7
:101ee0000e0078004f0778004f06be004f05be0079
:0c1ef0004f04be00ef03b100000006002c
:020000040000fa
:101efc00546f0000746100006c20000050690000f9
:101f0c00637300003a2000002564000000250000e7
:101f1c00640000002573000000500000696300009d
:101f2c0020250000642000006f66000020250000c2
:101f3c0064000000536800007574000074650000b4
:101f4c00723a00002000000053650000742000006d
:101f5c00546f0000746100006c2000005069000098
:101f6c0063730000005300006574000020440000ff
:101f7c006972000065630000746900006f6e0000f8
:101f8c00004600006f6300007573000020430000e2
:101f9c00616d000065720000610000004d6f000073
:101fac00766900006e670000207400006f2000004e
:101fbc00486f00006d650000004d00006f7600005a
:101fcc00696e000067200000746f00002053000051
:101fdc00746100007274000000520000756e000005
:101fec006e6900006e6700002e2e00002e000000af
:020000040000fa
:101ffc000200fa00f4a12000144278000482fb00d5
:10200c00cfa2de006600200007002000860f5200e1
:10201c00878f5a00e6003e0004600100060037007e
:10202c000a003700310037006700370086003700a0
:10203c0085003700c800370014c0b3000443780093
:10204c00f5a12000864a7800da0037000040eb004a
:10205c00e1010700c4070700004278000482fb007e
:10206c00e10f52000e003200e20f52001500320058
:10207c00e00f5200010032001b0037000042eb0061
:10208c000443780035a22000864a780054c0b3007f
:10209c0004437800f5a12000864a7800120037002e
:1020ac000042eb000443780035a22000864a7800f9
:1020bc0044c0b30004437800f5a12000864a7800a0
:1020cc000900370014c0b3000443780015a22000a7
:1020dc00864a780024c0b30004437800f5a12000a0
:1020ec00864a780000000000b200370014a22000dd
:1020fc001442780004407800b70107009a070700e3
:10210c00004278000482fb00e10f5200050032000f
:10211c00e20f520008003200e00f520020003200a3
:10212c002800370014c0b30004437800f5a1200048
:10213c00864a78002300370014a22000144278004d
:10214c000482fb00e20f52000a003200e30f52003f
:10215c000d003200e10f5200010032000f00370079
:10216c0024c0b3000443780015a22000864a7800ee
:10217c000a00370034c0b3000443780015a22000d5
:10218c00864a78000500370014c0b3000443780079
:10219c0015a22000864a78000000000009003700d4
:1021ac000042eb000443780035a22000864a7800f8
:1021bc0054c0b30004437800f5a12000864a78008f
:1021cc00000000007b00370040c0b3008201070014
:1021dc0065070700004278000482fb00e10f520003
:1021ec0005003200e20f520008003200e00f5200ee
:1021fc000f0032001300370014c0b3000443780002
:10220c00f5a12000864a78000e00370014c0b300f8
:10221c000443780015a22000864a780024c0b3003d
:10222c0004437800f5a12000864a780005003700a9
:10223c0064c0b30004437800f5a12000864a7800fe
:10224c00000000005b00370050c0b30062010700c3
:10225c0045070700004278000482fb00e00f5200a3
:10226c0003003200e20f52000a0032001300370064
:10227c000042eb000443780035a22000864a780027
:10228c0014c0b30004437800f5a12000864a7800fe
:10229c00490037000042eb000443780035a22000cf
:1022ac00864a780024c0b30004437800f5a12000ce
:1022bc00864a7800000000003f00370014c0b300cd
:1022cc000443780035a22000864a7800e4a120005f
:1022dc0014427800044f78001e407800cc070700a9
:1022ec0000427800e14f520016003a000042eb0029
:1022fc000443780035a22000864a7800f4a120001f
:10230c0014427800e44f520007003a000002eb0040
:10231c00c450880014c0b30004437800f5a1200019
:10232c00864a78000b003700b4508000c4508800f7
:10233c0034c0b30004437800f5a12000864a78002d
:10234c0004003700e4a12000144278000440780017
:10235c00df080700170037000042eb000443780049
:10236c0045a22000864a78000042eb000443780026
:10237c0035a22000864a7800d4538000e5538000b3
:10238c00d44f8800e54f88007e0af800fe09f9005a
:10239c001400200084508800d4c3b3000443780098
:1023ac0005a22000864a78000500070001003700ce
:1023bc00000000000fff37000080fa00000006004c
:1023cc001800fa00fe003700e7060700004278000c
:1023dc00e14f520019003a000042eb000443780030
:1023ec0045a22000864a78000042eb0004437800a6
:1023fc0035a22000864a7800d4538000e553800033
:10240c00d44f8800e54f88007e0af800fe09f900d9
:10241c001400200084508800d4c3b3000443780017
:10242c0005a22000864a780014c0b300044378004b
:10243c00f5a12000864a7800e500370060c0b300a3
:10244c00e500070004a22000144278000482fb007f
:10245c00e5032000850f520063003200f5032000d5
:10246c00850f52009e003200d5032000850f5200cc
:10247c00c6003a0044a2200014427800e04f5200fb
:10248c0039003a0054a2200014427800e04f520068
:10249c000f003a00cca2a80014c0b300044378008b
:1024ac0045a22000864a780072024700040078009a
:1024bc004f0807001e0a9000ae0a9000d44f880007
:1024cc00e54f8800be0a9000f54f8800bc0037002d
:1024dc006c0247000400780045080700863e200087
:1024ec0007002000d34f8000e44f8000f54f8000a0
:1024fc006e009000fe0090000e099000b1070700de
:10250c000003be00e45080008402420024982000a6
:10251c00048242001402780005002000840f53004e
:10252c00858f5b009b0036000042eb0084427800f4
:10253c0036a22000054b7800845080000402e8008d
:10254c00845088000042eb008442780056a22000a0
:10255c00054b7800e4c3b3008442780006a2200047
:10256c00054b78009600370044a2200014427800f6
:10257c00e14f520089003a006602470004007800df
:10258c001b080700863e200007002000d34f800068
:10259c00e44f8000f54f80003e009000ce0090008c
:1025ac005e019000870707000003be008402200034
:1025bc0005002000840f5300858f5b0079003600e6
:1025cc00cca2a9000042eb008442780046a2200075
:1025dc00054b780014c0b3008442780056a220004a
:1025ec00054b78007600370034a2200014427800a6
:1025fc00e04f520022003a00e4a12000144278007f
:10260c00e74f52000b003a00c5508000a4508000e8
:10261c0004824200d4508800d5508000a48621004a
:10262c00848f520007003600a4862100d450880005
:10263c0004003700c5508000a45080000482520072
:10264c00d450880014c0b3008442780036a2200015
:10265c00054b7800e4a12000144278000440780077
:10266c001b08070000427800e04f52004f00320078
:10267c00c45080000402e800c450880050003700a9
:10268c00c5508000d4508000848f52000b00320063
:10269c00e4a1200014427800044078000c080700e4
:1026ac0000427800e04f520042003200c4508000db
:1026bc000402e800c4508800410037000042eb00df
:1026cc008442780036a22000054b7800f4c3b30096
:1026dc008442780006a22000054b780038003700b1
:1026ec000e007800c2070700863e2000070020007d
:1026fc00d34f8000e44f8000f54f80001e0078001f
:10270c009e0090002e0190002e0707000003be00d3
:10271c006450800005002000840f5300858f5b00ff
:10272c00260039000042eb008442780046a22000cb
:10273c00054b7800d4538000e5538000d44f8800bb
:10274c00e54f88007e0af800fe09f90085508000ec
:10275c0094508000848f520005003e00d4c3b30017
:10276c000443780005a22000864a78001400370044
:10277c00140020008450880014c0b3000443780077
:10278c00f5a12000864a78000d00370000000000fb
:10279c000b003700000000000900370000000000ab
:1027ac0007003700000000000500370000000000a3
:1027bc00030037000000000001003700000000009b
:1027cc00f4a1200014427800e64f5200fefe3200c5
:1027dc000080fa00000006007400fa0040ef980038
:1027ec000042eb00044f78004eea90000482fb009c
:1027fc00cfa2de006600200007002000860f5200ea
:10280c00878f5a0039033e00046001000600370030
:10281c002d003700180137001802370093023700db
:10282c00a8023700cd02370024a220001442780001
:10283c00e04f52002f03320010c0b30055050700c3
:10284c0094508000841f7800e4f72800841f7800df
:10285c0090a220000cf80700e487570001c1b300d8
:10286c0090a220003105070000ccb30049050700f9
:10287c0004fa2800e102470009000900b45a780064
:10288c00a400b1000e02e800a1c0b300040078005f
:10289c002605070006802000e45080006722b9005e
:1028ac00040278000402430061c0b3000400780005
:1028bc001e0507000042eb008442780026a220008f
:1028cc00054b78001803370024a22000144278002e
:1028dc00e14f52001100320010c0b3002d0507006b
:1028ec00a4fa28006b0347000e000900345b780043
:1028fc00f400b1006b024700f1c0b3000400780093
:10290c000a05070014c0b300044f780014c0b300cc
:10291c000443780025a22000864a780040c0b3000a
:10292c00de05070000427800e14f520049003a00f2
:10293c009550800094862100848f52004e003e00fa
:10294c00e40620000e02420004007800280707006d
:10295c007e3290008e3a90003450880045508800aa
:10296c009e3a90005550880074a2200014427800c2
:10297c00e04f520023003a0084a220001442780059
:10298c00e04f52001f003a00863e20000700200056
:10299c00035080001450800025508000305080007f
:1029ac004150800052508000860607000003be0094
:1029bc008402200005002000840f5300858f5b00eb
:1029cc002e00360014c0b3008442780076a220009a
:1029dc00054b780014c0b300044f7800945080006d
:1029ec000402e80094508800345080004550800068
:1029fc0004508800155088000a0af800040af900ef
:102a0c001e00370014c0b3000443780075a22000e8
:102a1c00864a78000042eb000443780085a220002f
:102a2c00864a780014c0b300044f7800945080009c
:102a3c000402e80094508800345080004550800017
:102a4c0004508800155088000a0af800040af9009e
:102a5c000a0037000042eb000443780075a2200006
:102a6c00864a78000042eb000443780085a22000df
:102a7c00864a7800010037000000000050c0b30007
:102a8c008605070000427800e14f520048003a00ea
:102a9c0094508000e10f52004e003600e4062000f6
:102aac000e02420004007800d10607007e3290002e
:102abc008e3a900034508800455088009e3a900021
:102acc005550880074a2200014427800e04f520048
:102adc0023003a0084a2200014427800e04f5200f8
:102aec001f003a00863e20000700200003508000a3
:102afc0014508000255080003050800041508000e0
:102b0c00525080002f0607000003be0084022000f4
:102b1c0005002000840f5300858f5b002e003600cb
:102b2c0014c0b3008442780076a22000054b7800d4
:102b3c0014c0b300044f7800945080000402e900e4
:102b4c009450880034508000455080000450880018
:102b5c00155088000a0af800040af9001e00370014
:102b6c0014c0b3000443780075a22000864a780094
:102b7c000042eb000443780085a22000864a7800ce
:102b8c0014c0b300044f7800945080000402e90094
:102b9c0094508800345080004550800004508800c8
:102bac00155088000a0af800040af9000a003700d8
:102bbc000042eb000443780075a22000864a78009e
:102bcc000042eb000443780085a22000864a78007e
:102bdc0001003700000000001e427800e14f520057
:102bec0046023a000042eb000443780065a2200044
:102bfc00864a78000d00370064a220001442780049
:102c0c008482fb0094a220000482420005c2b3001f
:102c1c00054a780064a22000144278000442e800bf
:102c2c000443780065a22000864a780064a2200044
:102c3c0014427800ef4f5200efff360000ccb30087
:102c4c005404070094508000841f7800d4f82800a6
:102c5c00841f780090a220000bf70700e487570030
:102c6c0001c1b30090a22000300407000042eb0029
:102c7c00044f78002c02370024a220001442780064
:102c8c00e24f52002100320010c0b3004104070093
:102c9c007a0247003655260047072200068abe00f6
:102cac00640242003685260057472700068abe007c
:102cbc00640242004657260027072000068abe0001
:102ccc00640242007a024700c1c0b30004007800dd
:102cdc001604070000ccb3002e0407000680200069
:102cec00e45080006722b90004027800040243001b
:102cfc0061c0b300040078000c04070024c0b300ca
:102d0c000443780025a22000864a780040c0b30016
:102d1c00e204070000427800e14f520049003a00fb
:102d2c00e550800054032000848f52004e003e007a
:102d3c00e40620000e024200040078002c06070076
:102d4c007e3290008e3a90003450880045508800b6
:102d5c009e3a90005550880074a2200014427800ce
:102d6c00e04f520023003a0084a220001442780065
:102d7c00e04f52001f003a00863e20000700200062
:102d8c00035080001450800025508000305080008b
:102d9c0041508000525080008a0507000003be009d
:102dac008402200005002000840f5300858f5b00f7
:102dbc002e00360014c0b3008442780076a22000a6
:102dcc00054b780014c0b300044f7800e450800029
:102ddc000402e800e4508800345080004550800024
:102dec0004508800155088000a0af800040af900fb
:102dfc001e00370014c0b3000443780075a22000f5
:102e0c00864a78000042eb000443780085a220003b
:102e1c00864a780014c0b300044f7800e450800058
:102e2c000402e800e45088003450800045508000d3
:102e3c0004508800155088000a0af800040af900aa
:102e4c000a0037000042eb000443780075a2200012
:102e5c00864a78000042eb000443780085a22000eb
:102e6c00864a7800010037000000000050c0b30013
:102e7c008a04070000427800e14f520048003a00f3
:102e8c00e4508000e00f52004e003200e4062000b7
:102e9c000e02420004007800d50507007e32900037
:102eac008e3a900034508800455088009e3a90002d
:102ebc005550880074a2200014427800e04f520054
:102ecc0023003a0084a2200014427800e04f520004
:102edc001f003a00863e20000700200003508000af
:102eec0014508000255080003050800041508000ec
:102efc0052508000330507000003be0084022000fe
:102f0c0005002000840f5300858f5b002e003600d7
:102f1c0014c0b3008442780076a22000054b7800e0
:102f2c0014c0b300044f7800e45080000402e900a0
:102f3c00e4508800345080004550800004508800d4
:102f4c00155088000a0af800040af9001e00370020
:102f5c0014c0b3000443780075a22000864a7800a0
:102f6c000042eb000443780085a22000864a7800da
:102f7c0014c0b300044f7800e45080000402e90050
:102f8c00e450880034508000455080000450880084
:102f9c00155088000a0af800040af9000a003700e4
:102fac000042eb000443780075a22000864a7800aa
:102fbc000042eb000443780085a22000864a78008a
:102fcc0001003700000000001e427800e14f520063
:102fdc004c013a0000ccb3006e0307000042eb003a
:102fec000443780065a22000864a78000d00370063
:102ffc0064a22000144278008482fb0094a220007a
:10300c000482420005c2b300054a780064a2200085
:10301c00144278000442e8000443780065a22000c2
:10302c00864a780064a2200014427800ef4f5200c8
:10303c00efff360006802000e45080006722b900c4
:10304c000402780004024300841f780004f928006d
:10305c00841f78000101200090a2200020f60700b8
:10306c00e487570001c1b30090a220002f03070092
:10307c000042eb00044f78002b01370024a2200003
:10308c0014427800e34f52001e00320010c0b3000f
:10309c004003070094fb28006502200085024700ce
:1030ac000d000900b45a7800e400b100640220005d
:1030bc000e024200e1c0b300040078001b030700bd
:1030cc0000ccb30033030700069f2000e4a12000ce
:1030dc00144278000482fb006522b90004027800d7
:1030ec007e0252000402430041c0b3000400780089
:1030fc000e03070034c0b3008442780026a22000df
:10310c00054b780040c0b300e40307000042780090
:10311c00e14f52000500320050c0b300df0307003e
:10312c0000427800e14f520037003a0074a22000b0
:10313c0014427800e04f520039003a00e4062000b7
:10314c000e02420004007800290507007e32900030
:10315c008e3a900034508800455088009e3a90007a
:10316c0055508800863e2000070020000350800048
:10317c001450800025508000305080004150800059
:10318c00525080008f0407000003be008402200010
:10319c0005002000840f5300858f5b001f00360054
:1031ac0014c0b300044f7800e4a12000144278004e
:1031bc00e64f520005003a0074c0b3008442780018
:1031cc00e6a12000054b78000400370064c0b30072
:1031dc0084427800e6a12000054b78003450800032
:1031ec004550800004508800155088000a0af800e9
:1031fc00040af90014c0b3000443780075a220003f
:10320c00864a7800060037000042eb000443780041
:10321c0075a22000864a78000100370000000000eb
:10322c001e427800e14f5200b8003a0000ccb300c7
:10323c00d8020700069f2000e4a120001442780069
:10324c000482fb006522b900040278007e02520061
:10325c000402430041c0b30004007800b30207002d
:10326c000042eb00044f7800af00370024a220008e
:10327c0014427800e44f5200a600320010c0b30094
:10328c00c402070074fc2800450320008502470097
:10329c000c000900b45a7800d400b100440320009b
:1032ac000e024200d1c0b300040078009f02070058
:1032bc0044c0b3008442780026a22000054b78005d
:1032cc009900370024a2200014427800e54f5200e8
:1032dc009200320010c0b300ae020700f4a120002f
:1032ec0014427800e44f52000c003a0044fd2800d0
:1032fc0016042000060347000e000900345b78001a
:10330c00f400b100140420000e024200f1c0b3001e
:10331c0004007800850207000b00370034fe2800fb
:10332c0005052000850247000f000900b45a7800fb
:10333c000401b100040520000e02420001c1b300db
:10334c00040078007902070054c0b300844278006e
:10335c0026a22000054b78007300370024a2200021
:10336c0014427800e64f52003500320010c0b30012
:10337c008802070034ff28000606200006034700d9
:10338c000a000900345b7800b400b1000406200088
:10339c000e024200b1c0b3000400780063020700c3
:1033ac0000ccb3007b0207000042eb000443780022
:1033bc0065a22000864a78000d00370064a2200028
:1033cc00144278008482fb0094a220000482420004
:1033dc0005c2b300054a780064a2200014427800ac
:1033ec000442e8000443780065a22000864a780075
:1033fc0064a2200014427800ef4f5200efff360019
:10340c009550800084508000851f7800841f7800c0
:10341c0034f92800841f780090a220001af50700c8
:10342c00e687570001c1b30090a220003f020700bd
:10343c0064c0b3000443780025a22000864a7800bb
:10344c008550800074508000848f5200350032000b
:10345c00845080007450880000ccb3004d020700eb
:10346c000042eb000443780065a22000864a7800f5
:10347c000d00370064a22000144278008482fb0007
:10348c0094a220000482420005c2b300054a7800d1
:10349c0064a22000144278000442e800044378003f
:1034ac0065a22000864a780064a2200014427800ad
:1034bc00ef4f5200efff3600955080008450800093
:1034cc00851f7800841f780034f92800841f780049
:1034dc0090a22000ecf40700e687570001c1b3006e
:1034ec0090a22000110207000f003700000000001e
:1034fc000d003700000000000b003700000000003a
:10350c000900370000000000070037000000000031
:10351c000500370000000000030037000000000029
:10352c0001003700000000000080fa0000000600d7
:10353c000000fa00140020006450880014002000e1
:10354c0084508800845080007450880084022000cd
:10355c009450880074c0b30084407800e0a120002f
:10356c000148780094508000a586210011000900c4
:10357c008482d80000027800a45088000002eb007e
:10358c00b45088000002eb00c4508800a4508000a6
:10359c00d4508800b4012000e45088000042eb00b5
:1035ac0004437800f5a12000864a7800d4c3b30008
:1035bc008440780000a220000148780014c0b300b9
:1035cc000443780015a22000864a780064c0b3003a
:1035dc008440780020a22000014878000042eb00d3
:1035ec000443780045a22000864a78000042eb0094
:1035fc008440780050a22000014878000042eb0083
:10360c000443780035a22000864a78000042eb0083
:10361c008440780070a22000014878000042eb0042
:10362c000443780085a22000864a7800d05380009d
:10363c00e153800000508800115088007e0af80089
:10364c00040af900410307002d0107000080fa006d
:04365c000000060064
:020000040000fa
:10366000720a00000800000000000000860a000046
:1036700002000000000000007a0a000006000000be
:1036800002000000ff000000000000003a0a0000f5
:103690003800000000000000800a00000600000062
:1036a00000000000fa0900004000000000000000d7
:1036b00000080000fa01000002000000312f38006d
:1036c0003030300000312f0036343000300031000f
:1036d0002f35300030300000312f340030303000d2
:1036e00000312f0033323000300031002f323500ee
:1036f00030300000312f32003030300000312f00e8
:1037000031363000300031002f31320035300000ca
:10371000312f31003030300000312f003830300090
:10372000000031002f36340030000000312f35000a
:103730003030000000312f00343030000000310004
:103740002f33320030000000312f320035300000be
:1037500000312f0032303000000031002f313600b0
:1037600030000000312f31003235000000312f00d1
:1037700031303000000031002f38300000000000f0
:10378000312f36003000000000312f0035300000ae
:10379000000031002f34300000000000312f3300d2
:1037a0003000000000312f003235000000003100f1
:1037b0002f32300000000000312f310035000000b2
:1037c00000312f0031330000000031002f31300074
:1037d00000000000312f38000000000000312f00f1
:1037e00036000000000031002f350000000000000e
:1037f000312f34000000000000302e0033000000a4
:10380000000030002e34000000000000302e350093
:103810000000000000302e003600000000003000e4
:103820002e38000000000000312e300000000000a3
:1038300000312e0033000000000031002e36000061
:1038400000000000322e30000000000000322e0088
:1038500035000000000033002e32000000000000a0
:10386000342e30000000000000352e003000000033
:10387000000036002e30000000000000382e30001e
:1038800000000000003130002e3000000000310048
:10389000332e30000000000031352e0030000000d3
:1038a000003230002e30000000003200352e300093
:1038b0000000000033302e00300000000000010046
:1038c00000010000010001000001000001000100f2
:1038d00000010000010002000002000002000300dd
:1038e00000030000040005000006000008000900b5
:1038f000000b00000f001200001500001a0023004a
:10390000002a000034004400004e000069008200dc
:1039100000af0000d2000400013601009a01fe0051
:10392000016202002a03f200031e05004a06da00c3
:1039300007ce09008a0caa000f9213007a174a00da
:103940001f242700dc32ac003a344e00bc61cc00ae
:103950000b484f004d450000415741005900000001
:10396000520b000024000000020000007a0b00004f
:10397000007a0b0009000000000200007c0b000030
:10398000007c0b000e02010000000000000000009f
:10399000000000000602020000000000760b00009c
:1039a0000200000002000000520b0000780b000033
:1039b00002000000000000007a0b0000020000007e
:1039c000000000007c0b000002000000000000006e
:1039d0007e0b000002000000020000000100000059
:1039e000280b00002a0000000200000030313200e5
:1039f00033343500363738003941420043444500fe
:103a00004600300031323300343536003738390063
:103a1000616263006465660000286e00756c6c006e
:103a200029000000880a0000a00000000200000039
:103a3000010000000000000000000a00000000007b
:103a40000000000000640000000000000000000012
:103a5000e803000000000000000010002700000044
:103a60000000000000a0860001000000000000002f
:103a700040420f0000000000000080009698000007
:103a8000000000000000e100f5050000000000005b
:103a900000ca9a003b00000000000000e40b540044
:103aa000020000000000e800764817000000000057
:103ab0000010a500d4e8000000000000a0724e0035
:103ac00018090000000040007a10f3005a000000be
:103ad0000080c600a47e8d000300000000c16f00be
:103ae000f2862300000000008a5d78004563010033
:103af00000006400a7b3b600e00d000000e88900f4
:0c3b00000423c7008a0000000000000041
:020000040000fa
:103b0c001200fa00cd62a900cd42a9006c02470058
:103b1c0004007800b60207006e029000fe029000ce
:103b2c0094538800a55388008e0a9000b5538800e2
:103b3c00000000006602470004007800ac02070099
:103b4c00863e200007002000be0190004e0290002f
:103b5c00de02900090538000a1538000b25380008d
:103b6c00180207000003be003401200005002000ed
:103b7c00840f5300858f5b00eeff360030c3b3001b
:103b8c008400070020c3b3008200070080c2b3008a
:103b9c008000070080c0b3007e00070010c0b30097
:103bac007c00070060c0b3007a000700c0c0b300ff
:103bbc00780007006c024700040078008c020700b4
:103bcc006e029000fe02900094538800a55388006a
:103bdc008e0a9000b5538800000000000e0078009b
:103bec0083020700863e2000070020009e0178001b
:103bfc001e029000ae02900090538000a1538000f2
:103c0c00b2538000ef0107000003be00740c2000cb
:103c1c0005002000840f5300858f5b00efff3600fa
:103c2c000042eb008442780086a72000054b780008
:103c3c000080fa00000006000e00fa0060479800b1
:103c4c0071479800000000000e0078006802070021
:103c5c00863e20000700200093538000a453800070
:103c6c00b55380001e0078009e0090002e0190003d
:103c7c00d40107000003be009400200005002000c2
:103c8c00840f5300858f5b00efff3600cd62a800d8
:103c9c006e4290000402fb0044a2de000442780055
:103cac000440780062000700cd62a900cd62a80034
:103cbc006e429000044078005d000700cd62a900c0
:103ccc007e429000e04f520007003a0085a720008a
:103cdc009542780004c8b30004c272000440780016
:103cec002c0007000600370084a72000144278003f
:103cfc000442e8000443780085a72000864a780037
:103d0c006802470004007800390207004e02900058
:103d1c00de02900094538800a5538800ee029000b8
:103d2c00b55388000080fa00000006000600fa0077
:103d3c0010079800414798000002eb00040f780030
:103d4c000e0037001e0278009e0290000482420092
:103d5c0014427800e04f5200070032001e02780037
:103d6c009e029000048242001442780011c0b300fd
:103d7c0004407800b0ff07001e0fe8004e42900090
:103d8c000482fb009e0f5200eeff3c000080fa0004
:103d9c00000006000e00fa006047980000000000ca
:103dac000e00780012020700863e2000070020005b
:103dbc0093538000a4538000b55380001e007800fc
:103dcc009e0090002e0190007e0107000003be00b3
:103ddc009400200005002000840f5300858f5b00a9
:103dec00efff36006e4290000482fb004422de009e
:103dfc0004427800044078000d0007006e409000eb
:103e0c000b0007006802470004007800f801070067
:103e1c004e029000de02900094538800a553880057
:103e2c00ee029000b55388000080fa0000000600f6
:103e3c000e00fa00404f98004e4a9000614262001a
:103e4c0061426200614262000482fb006102620016
:103e5c004c22dd0066168000f5ff2e008502630003
:103e6c0005027200641688004e4a90000482fb0022
:103e7c00620262000482d100044278006142620056
:103e8c000482fb00610262004d22dd006616800098
:103e9c00f5ff2d0085026300050272006416880090
:103eac004e4a90000482fb006402620042a2de00d3
:103ebc0004427800614262000482fb0061026200ed
:103ecc004e22dd0066168000f5ff2b008502630094
:103edc0005027200641688004e4a90000482fb00b2
:103eec006802620043a2de00044278006142620074
:103efc000482fb004f22dd0066168000f5ff2700d0
:103f0c00850263000502720064168800cd42a80089
:103f1c006602470004007800b501070000000000ad
:103f2c000e007800b201070006242400f7002000e0
:103f3c009e0178001e029000ae0290003e009000a0
:103f4c00ce0090005e0190001e0107000002be0032
:103f5c00e00f5200e08f5a00f1ff3200cd42a90071
:103f6c000080fa00000006000200fa000042eb009c
:103f7c00044f7800420037001e40780047000700cd
:103f8c0000427800e14f520022003a001e427800b5
:103f9c008482fb00a4a620000482420015c0b3005a
:103fac00054a78001e427800e14f52000b003a009f
:103fbc000042eb0004437800a5a62000864a780056
:103fcc00d4538000e5538000d4518800e55188001b
:103fdc007e0af8003e0af900280037001e427800dd
:103fec00e34f520025003a000042eb0004437800f6
:103ffc00c5a62000864a7800d4538000e553800083
:10400c0034528800455288007e0af8004a0af900aa
:10401c001a0037001e4378008682fb00a4a62000fd
:10402c000482420014427800e14f520013003a001f
:10403c009e4378008782fb00a4a6200004824200e5
:10404c008042eb00054a78009e4278000582fb0016
:10405c006622b90084027800a4a3200004824200e6
:10406c00d6538000e7538000068abe00f7538000c9
:10407c00270298001e427800050037001e4fe8000a
:10408c001e427800e54f5200bbff360084c0b300df
:10409c00044078000080fa00000006000e00fa00d0
:1040ac00404f98000e007800510107004e4a9000d6
:1040bc000482fb006622b90084027800a4a32000cd
:1040cc00048242001403be0036079800470798008c
:1040dc00a4039000570798004e4890004c0007002e
:1040ec0000427800e14f520038003a00ee42900056
:1040fc00a4a720001442780084cf52000b003a0091
:10410c004e4a90000482fb006622b90084027800bb
:10411c00a4a32000048242003e1a78002e127800dc
:10412c00ae02900025029800350037004e4a9000f0
:10413c00e14f5200140032004e4a9000e34f5200ff
:10414c0011003200863e200007002000be019000c6
:10415c004e029000de0290001e0078009e0090003f
:10416c002e019000970007000003be00840220007f
:10417c0005002000840f5300858f5b002000360063
:10418c0014c0b3001f003700863e2000070020003b
:10419c00be0190004e029000de0290001e007800de
:1041ac009e0090002e019000860007000003be00c8
:1041bc008425200005002000840f5300858f5b00b0
:1041cc000e00360014c0b3000e0037004e4a9000ab
:1041dc000482fb006622b90084027800a4a32000ac
:1041ec0004824200d6538000e7538000068abe004a
:1041fc00f7538000270298000100370000000000f0
:10420c000042eb00044078000080fa000000060039
:10421c000400fa00204798000042eb00044f78009d
:10422c000042eb000443780005a72000864a780082
:10423c00360037002e4290000482fb00cfa2de0035
:10424c007600200007002000860f5200878f5a004e
:10425c0027003e000460010007003700060037000d
:10426c000a003700090037000d0037001100370035
:10427c001500370019003700141680004222de00aa
:10428c00614262001e4f42001a0037001416800073
:10429c004322de00614262001e4f420015003700cf
:1042ac00541680004222de00614262001e4f420022
:1042bc0010003700541680004322de006142620079
:1042cc001e4f42000b003700141680004422de0003
:1042dc00614262001e4f42000600370054168000f7
:1042ec004422de00614262001e4f42000100370092
:1042fc000000000004a72000144278000442e800eb
:10430c000443780005a72000864a780004a7200003
:10431c0014427800e94f5200c6ff36001e42780066
:10432c00e74f520003003e000042eb00044f7800c0
:10433c000200370014c0b300044f78001e4278000e
:10434c00044078000080fa00000006000000fa002b
:10435c000042eb000443780005a72000864a780051
:10436c001200370004a72000144278000482fb00de
:10437c006622b90084027800a4a3200004824200c3
:10438c00d6538000e7538000068abe00f7538000a6
:10439c002702980004a72000144278000442e80089
:1043ac000443780005a72000864a780004a7200063
:1043bc0014427800e74f5200eaff36000080fa0002
:1043cc00000006002000fa00889fbe008a9fbe00f5
:1043dc00000f9800110f9800220f9800330f9800cf
:1043ec00440f9800550f9800660f9800770f9800af
:1043fc006022b800048fbe008e5290006e52900066
:10440c0084cf52000d0034000e0a90009e0a9000da
:10441c002407980035079800ae0a900045079800cd
:10442c003e0a9000ce0a9000540798006507980049
:10443c00de0a90007507980031003700ee529000ac
:10444c000e52900084cf52000d0034000e0a9000e2
:10445c009e0a90002407980035079800ae0a900039
:10446c00450798003e0a9000ce0a90005407980029
:10447c0065079800de0a9000750798002000370049
:10448c001e0b9000ae0b90004e0a9000de0a9000be
:10449c00840f5300858f5b000d0036000e0a9000d0
:1044ac009e0a90002407980035079800ae0a9000e9
:1044bc00450798003e0a9000ce0a900054079800d9
:1044cc0065079800de0a9000750798000c0037000d
:1044dc003e0a9000ce0a90002407980035079800f9
:1044ec00de0a9000450798000e0a90009e0a900084
:1044fc005407980065079800ae0a9000750798005d
:10450c004e4290008402fb002e4a90000402fb00f5
:10451c00048252006123b900fe0a9000047d200041
:10452c0004aab900040078006e0a90006022b90059
:10453c000402780004004000ee0a9000047d200084
:10454c00042ab800050040008002780004b8b900c5
:10455c000000780006a9b900820078000100400034
:10456c0006037800040278000432b800050040000d
:10457c00800278000404be003e039000ce0390003d
:10458c006e029000fe0290000405530085855b00ce
:10459c006e099000fe09900000482800e1012000ff
:1045ac0013f007000002be000401be000a00be00aa
:1045bc0050f007000002be000802420089824a0047
:1045cc000400be0034f007000002be00048fbe00e1
:1045dc001e00be0015f007000002be000400be0065
:1045ec004f05be004f04be000080fa00000006001c
:1045fc000c00fa00000278008002eb00050f780036
:10460c006033b800160798002707980065a82000ab
:10461c00954278006547980035088000050f7800b2
:10462c0055088000612bb8001607980027079800e2
:10463c009e0278006128b8001e039000ae03900023
:10464c00c033dd00060020000003430081834b00d3
:10465c0046079800570798003e039000ce03900041
:10466c00068abe00de039000270298000400780042
:10467c000080fa00000006000000fa001061a8009b
:10468c00840880000440a1000450a1008408880024
:10469c001021a90010c1a900048022006408880020
:1046ac00b4e62e007408880094e0a800340580005d
:1046bc0004c0a00004d0a10004e0a00034058800d0
:1046cc0084e0a90011e1a8000080fa0000000600b7
:1046dc000800fa00604798000e007800c4ff07003d
:1046ec00863e2000070020000354800014548000f4
:1046fc00255480001e0078009e0090002e01900032
:10470c0030ff07000003be009400200005002000cd
:10471c00840f5300858f5b003c00360065168000cb
:10472c000404200004826200e00f520008003200f2
:10473c006e429000e64f520002003a00c4e2a8001c
:10474c0001003700cd02a800ccc2a9002800370018
:10475c00251680000408200004826200e00f52003d
:10476c00080032006e429000e64f520002003a0000
:10477c00cd22a80001003700ccc2a800c4e2a900d9
:10478c001b003700651680000420200004826200a4
:10479c00e00f5200080032006e429000e64f5200cb
:1047ac0002003a00cd02a80001003700c4e2a800c4
:1047bc00cd22a9000e0037006516800004102000e1
:1047cc0004826200e00f5200080032006e4290003a
:1047dc00e64f520002003a00ccc2a800010037009c
:1047ec00cd22a800cd02a90001003700ccc2a80040
:1047fc001e02be000454880015548800ae029000be
:10480c002554880014c0b300010037000042eb00af
:10481c00044078000080fa00000006000000fa0056
:10482c00ccc2a800c4e2a900cd22a900cd02a900e7
:10483c00cce2a800d4538000e553800004548800d7
:10484c00155488007e0af800840af9000080fa00ea
:10485c00000006000000fa0002000700e4f5070063
:10486c00feff37000000fa0021e2a90037e6a9009c
:10487c0061e2a9006362a8006382a80007e2a900b4
:10488c000002eb00042788000002eb0004168800ed
:10489c000002eb00241688000002eb0014278800ad
:1048ac000002eb00441688000002eb00641688003e
:1048bc0071ff0700d9ff07001dfb07000080fa00fd
:1048cc00000006000000fa0081e0a8000080fa0059
:1048dc0000000600849fbe00861f78003400f8009c
:1048ec0004002000a40188000000fa0064a8200045
:1048fc00144278000442e8000443780065a82000c4
:10490c00864a780084e0a9000080fa003400f9009f
:0c491c004f0378004f02be000040060070
:020000040000fa
:0200000401f009
:04000000ffff0000fe
:020000040000fa
:0200000401f009
:04000800ffff0000f6
:020000040000fa
:0200000401f009
:04000c00dfff000012
:020000040000fa
:0200000401f009
:04001000bbff000032
:020000040000fa
:0200000401f009
:04001400ffff0000ea
:020000040000fa
:0200000401f009
:04001800fcff0000e9
:020000040000fa
:0200000401f009
:04001c00ffff0000e2
:020000040000fa
:0200000401f009
:04002000ffff0000de
:00000001FF
